:020000040800F2
:10000000F806002029020008730F0008F90C000808
:10001000710F00087B0400080910000800000000B0
:10002000000000000000000000000000770F000842
:100030007D04000800000000750F0008790F00081B
:10004000430200084302000843020008430200087C
:10005000430200084302000843020008430200086C
:10006000430200084302000843020008430200085C
:10007000430200084302000843020008430200084C
:10008000430200084302000843020008430200083C
:10009000430200084302000843020008430200082C
:1000A000430200084302000843020008430200081C
:1000B000430200084302000843020008430200080C
:1000C00043020008430200084302000843020008FC
:1000D00043020008430200084302000843020008EC
:1000E00043020008430200084302000843020008DC
:1000F00043020008430200084302000843020008CC
:1001000043020008430200084302000843020008BB
:1001100043020008430200084302000843020008AB
:10012000430200084302000843020008430200089B
:10013000430200084302000843020008430200088B
:10014000430200084302000843020008430200087B
:10015000430200084302000843020008430200086B
:10016000430200084302000843020008430200085B
:100170004302000843020008430200080000000098
:10018000430200084302000800F002F800F03CF8C7
:100190000AA090E8000C82448344AAF10107DA45E2
:1001A00001D100F031F8AFF2090EBAE80F0013F0F8
:1001B000010F18BFFB1A43F001031847780F000026
:1001C000980F0000103A24BF78C878C1FAD85207B7
:1001D00024BF30C830C144BF04680C6070470000C1
:1001E0000023002400250026103A28BF78C1FBD840
:1001F000520728BF30C148BF0B6070471FB500F0E1
:100200006BFF1FBD10B510BD00F001F91146FFF7DF
:10021000F5FF00F00BFF00F01FF903B4FFF7F2FF4A
:1002200003BC00F023F90000094880470948004753
:10023000FEE7FEE7FEE7FEE7FEE7FEE7FEE7FEE796
:10024000FEE7FEE704480549054A064B70470000F3
:10025000F90F000889010008F8000020F8060020C6
:10026000F8020020F802002053EA020C00F0698036
:100270002DE9F04B4FF00006002B1FBFB3FA83F5BA
:1002800003FA05F424FA05F65E4012BF1643B2FAEB
:1002900082F502FA05F4C5F120051EBF22FA05FC1D
:1002A00044EA0C04203556EA044C4FEA144418BFC3
:1002B000641C4FF000084FF00009904271EB030CF2
:1002C00039D3002919BFB1FA81F701FA07F6B0FA5C
:1002D00080F700FA07F6C7F120071EBF20FA07FCD7
:1002E00046EA0C062037B6FBF4FCA7EB0507103FE7
:1002F00007F01F0BCBF120060CFA0BFB2CFA06F6CD
:1003000044BFB3460026202FA4BF5E464FF0000B2B
:100310005BEA060C08BF4FF0010B19EB0B09ABFBB6
:10032000027C48EB0608C01B06FB02CC0BFB03CC8F
:1003300071EB0C01C1E70B46024641464846BDE859
:10034000F08B13B54FF000004FF00001AFF30080C9
:10035000BDE81C40704710B5203AC0F00B80B1E8F2
:100360001850203AA0E81850B1E81850A0E81850EA
:10037000BFF4F5AF5FEA027C24BFB1E81850A0E8F3
:10038000185044BF18C918C0BDE810405FEA827C0D
:1003900024BF51F8043B40F8043B08BF7047D20724
:1003A00028BF31F8023B48BF11F8012B28BF20F8C5
:1003B000023B48BF00F8012B70474FF0000200B528
:1003C000134694469646203922BFA0E80C50A0E878
:1003D0000C50B1F12001BFF4F7AF090728BFA0E826
:1003E0000C5048BF0CC05DF804EB890028BF40F8F2
:1003F000042B08BF704748BF20F8022B11F0804F34
:1004000018BF00F8012B704770477047704775465A
:1004100000F028F8AE4605006946534620F0070074
:10042000854618B020B5FFF70DFFBDE820404FF01E
:1004300000064FF000074FF000084FF0000B21F0CE
:100440000701AC46ACE8C009ACE8C009ACE8C0099B
:10045000ACE8C0098D4670470446AFF300802046E3
:10046000FFF7DBFE00487047940000200149182088
:10047000ABBEFEE7260002007047FEE770470000B3
:1004800070B5044600F010F90546601C02D004481F
:100490000078044400F008F9401BA042FAD370BD74
:1004A000440000202DE9F84FDFF8BCA1002201250F
:1004B00003264FF00F090AF1040BAAF1040E00BF46
:1004C0000B6805FA02F42340A34270D10F7907F0BC
:1004D0000307012F01D0022F16D187684FEA420887
:1004E00006FA08FC27EA0C07D1F80CC00CFA08FC45
:1004F0004CEA070CC0F808C04768A7430C79C4F35E
:10050000001494403C4344600C79E443A4070AD0AF
:10051000C4684FEA420C06FA0CF7BC438F6807FA2E
:100520000CF72743C7600C7904F00304022C12D1A6
:10053000D40800EB840CDCF820405707FF0E09FAC2
:1005400007F824EA0804D1F8108008FA07F848EA06
:100550000408CCF8208004684FEA420C06FA0CF735
:10056000BC430F7907F0030707FA0CF7274307602E
:100570004C6814F4403F70D03C4C276847F48047E7
:100580002760246822F0030704F480440094384C68
:1005900007EB040CDCF8084897074FEA177809FACC
:1005A00008F7BC43334FB84202D1002724E054E09F
:1005B000314FB84201D101271EE0304FB84201D17E
:1005C000022719E02E4FB84201D1032714E02D4F26
:1005D000B84201D104270FE02B4FB84201D10527C3
:1005E0000AE02A4FB84201D1062705E0284FB84259
:1005F00001D1072700E0082707FA08F72743CCF8BE
:100600000878DAF800405746D1F804C09C435FEA06
:10061000CC2C00D51C433C60DBF800405F46D1F891
:1006200004C09C435FEA8C2C00D51C433C60DEF880
:1006300000407746D1F804C09C435FEA8C3C00D56B
:100640001C433C60084F083F3C68D1F804C09C4301
:100650005FEACC3C00D51C433C60521C102AFFF4DE
:100660002FAFBDE8F88F0000083C0140443802403D
:100670000030014000000240000402400008024037
:10068000000C02400010024000140240001802401A
:10069000001C02400069084000D0012070470AB1E8
:1006A000816170470904FBE70148806870470000DA
:1006B000440000200248816802781144816070473C
:1006C000440000200B4810B5016841F4007101603E
:1006D000016841F480610160016841F4807101604A
:1006E000032000F061F80F2000F006F800F024F875
:1006F000002010BD003C024070B50D4D04464FF483
:100700007A712878B1FBF0F00A490968B1FBF0F082
:1007100000F0DEFA48B9102C07D200222146501E04
:1007200000F022F800206C6070BD012070BD000058
:1007300044000020500000200A4808B5016841F438
:1007400080410160006800F4804000900548001F6F
:10075000016841F080510160006800F08050009015
:1007600008BD000044380240F0B40E4B1B680C4634
:10077000C3F30223C3F10705042D00D90425191D75
:10078000072901D2002300E0DB1E012606FA05F14D
:10079000491E214099409E40761E16403143F0BCD0
:1007A00000F033BC0CED00E0064900F007020868D9
:1007B0004FF6FF03184040EA0220034A1043086046
:1007C000704700000CED00E00000FA052DE9F0474D
:1007D0000E46050065D0DFF81481D8F80000F7B2A6
:1007E00000F00700B04207D288F80070D8F8000087
:1007F00000F00700B04254D128683D4C810712D563
:10080000400703D5206840F4E050206028780007B6
:1008100003D5206840F4604020602068A96820F07B
:10082000F000084320602878C0072DD03049686860
:100830000839012812D0022813D0032811D00968E2
:10084000890700292DDA216821F003010143216085
:10085000FFF72AFF814641F2883A0EE009688903D2
:10086000EFE709688901ECE7FFF71EFFA0EB09013C
:10087000514502D90320BDE8F0872068696800F07F
:100880000C00B0EB810FEFD1D8F80010404601F01A
:100890000701B14207D90770006800F00700B042B5
:1008A00001D00120E7E72878400705D52068E968EE
:1008B00020F4E050084320602878000706D520681F
:1008C000296920F4604040EAC100206000F018F877
:1008D0002168084AC1F30311515CC8400649086009
:1008E00006480068FFF708FF0020C4E7003C02400C
:1008F00008380240E21000085000002048000020A4
:10090000154810B5006810F00C02144813D01449B3
:10091000042A0FD0082A0ED10F4C241F2268236806
:1009200002F03F025B0207D52068C0F38810A0FBED
:10093000010106E0084610BD2168C1F38811A1FB42
:1009400000010023FFF790FC2168C1F30141491C1D
:100950004900B0FBF1F010BD083802400024F4005B
:1009600040787D012DE9F84F04006ED02078DFF843
:100970004C93C007A9F104054AD009F104000168AD
:10098000C1F38101012908D00068C0F38100022869
:100990000AD1D9F80000400206D52868800337D56F
:1009A00060680028E1D033E06068B0F5803F10D087
:1009B000B0F5A02F286810D020F480302860286877
:1009C00020F4802028606068A8B1FFF76DFE06461D
:1009D0000DE0286840F48030F4E740F4802028607F
:1009E000F7E700BFFFF760FE801B642873D8286814
:1009F0008003F7D50CE0FFF757FE064605E000BF81
:100A0000FFF752FE801B6428F0D828688003F7D4D3
:100A10002078DFF8AC8280074FF0000A3ED5A74867
:100A2000001D016811F00C0F08D00068C0F38100B0
:100A300002280BD1D9F80000400207D428688007AB
:100A400016D5E068012800D112E033E1E068B8B1C2
:100A50000120C8F80000FFF727FE064605E000BFAA
:100A6000FFF722FE801B0228C0D828688007F7D530
:100A70002868216920F0F80040EAC10028600DE0F4
:100A8000C8F800A0FFF710FE064604E0FFF70CFED2
:100A9000801B02281FD828688007F7D42078000719
:100AA00022D5864F87486169703771B10121016095
:100AB000FFF7FAFD064604E0FFF7F6FD801B02286B
:100AC00009D838688007F7D50EE0C0F800A0FFF716
:100AD000EBFD064605E082E0FFF7E6FD801B0228FD
:100AE0007DD838688007F7D42078400768D5DFF8CC
:100AF000CCB100270BF13C0BDBF80000C0000BD49D
:100B0000DBF8001041F08051CBF80010DBF800005A
:100B1000012700F0805000906B4E3068C00510D463
:100B2000306840F480703060FFF7BEFD009005E053
:100B3000FFF7BAFD0099401A022850D83068C00566
:100B4000F6D55E4EA0686C3601280FD005283068B7
:100B500010D020F001003060306820F004003060D8
:100B6000A068B8B1FFF7A0FD00900FE0306840F03A
:100B70000100F4E740F004003060F7E7FFF794FD70
:100B80000099411A41F28830814266D83068800766
:100B9000F4D50EE0FFF788FD009007E0FFF784FD35
:100BA0000099411A41F28830814256D83068800756
:100BB000F4D42FB1DBF8001021F08051CBF80010F5
:100BC000A069C8B33D49091D0968C1F38101022923
:100BD0004AD00228504607D0C8F8600000E03CE048
:100BE000FFF762FD04463BE04746C8F86000FFF7A8
:100BF0005BFD064605E000BFFFF756FD801B02289F
:100C00002BD828688001F7D4D4E907010843A16AEA
:100C10002E4A490802EB0141626A41EA8211084307
:100C200094F82C1040EA0161C9F8001001203866E0
:100C3000FFF73AFD044606E03EE000BFFFF734FD53
:100C4000001B022809D828688001F7D534E000BFCE
:100C5000FFF72AFD001B022802D90320BDE8F88F08
:100C600028688001F4D427E00128F7D0D9F80000E3
:100C7000E26900F4800191421CD1226A00F03F0138
:100C8000914217D147F6C071626A0140B1EB821FF1
:100C900010D1A26A4FF0FF3300F4403103EB52024F
:100CA000B1EB024F06D194F82C1000F07060B0EB5D
:100CB000016F01D00120D1E70020CFE704380240C6
:100CC00000004742800E4742007000400000FFFFD6
:100CD00010B5401EB0F1807F01D3012010BD4FF050
:100CE000E02460610F21601700F08FF90020A061FF
:100CF00007202061002010BDFEE70000F0B5274E60
:100D00000121254A3378B77801FA03F47378F6782D
:100D100001FA03F301FA07F5B140B0B101281DD083
:100D200002282CD003280FD1D06946688E43466034
:100D3000106941682143416050694168194341602D
:100D40009069416829434160F0BD10694668A64337
:100D50004660506944681C43446007E05069466837
:100D60009E4346601069436823434360906943682B
:100D70002B434360D06942680A434260F0BD9069EA
:100D80004668AE4346601069456825434560506932
:100D900044681C434460EDE764000020000000202C
:100DA00070B5104900200D8D4C8D8A8DCB8D0E496C
:100DB00025FA00F6F60700D0087024FA00F6F607C8
:100DC00000D0487022FA00F6F60700D0887023FAA7
:100DD00000F6F60700D0C870401CC0B21028E7D358
:100DE00070BD0000640000200000002070B50146C6
:100DF00030221C48FFF7AFFAFFF7D2FF194C2269E7
:100E00005368194901200D7800FA05F52B4353600A
:100E1000626953684D7800FA05F52B435360A26967
:100E200053688D7800FA05F52B435360E2695368E7
:100E3000C978884003435360218D01222069FFF760
:100E40002EFC618D01226069FFF729FCA18D012232
:100E5000A069FFF724FCE18DE069BDE87040012244
:100E6000FFF71DBC640000200000002070B50446A0
:100E70000020FFF743FF3D4D298C2868FFF70AFC4F
:100E800000B101202070698C6868FFF703FC00B195
:100E900001202071A98CA868FFF7FCFB00B101209C
:100EA0002072E98CE868FFF7F5FB00B101202073A0
:100EB0000120FFF723FF298C2868FFF7EBFB00B127
:100EC00001206070698C6868FFF7E4FB00B10120C5
:100ED0006071A98CA868FFF7DDFB00B1012060728A
:100EE000E98CE868FFF7D6FB00B1012060730220AF
:100EF000FFF704FF298C2868FFF7CCFB00B1012025
:100F0000A070698C6868FFF7C5FB00B10120A07173
:100F1000A98CA868FFF7BEFB00B10120A072E98C84
:100F2000E868FFF7B7FB00B10120A0730320FFF7CB
:100F3000E5FE298C2868FFF7ADFB00B10120E070C9
:100F4000698C6868FFF7A6FB00B10120E071A98CED
:100F5000A868FFF79FFB00B10120E072E98CE86808
:100F6000FFF798FB00B10120E07370BD6400002022
:100F7000FEE7FEE770477047FFF79CBB10B592B0E5
:100F800030216846FFF719FA14210CA8FFF715FA6B
:100F900017480024016841F080510160006800F0AA
:100FA000805011901348016841F48041016000684D
:100FB000069400F4804011900220009001200390DC
:100FC000102004906846FFF7CDFC08B172B6FEE72A
:100FD0000F20CDE90C040E940F9400210CA810945E
:100FE000FFF7F4FB002801D072B6FEE712B010BD87
:100FF00040380240007000400248016841F470012E
:101000000160704788ED00E0FEE70907090E00283F
:1010100004DB00F1E02080F80014704700F00F00BE
:1010200000F1E02080F8141D7047000092B0FFF737
:1010300049FBFFF7A3FF14210CA8FFF7BEF92348D3
:101040000025016841F0080101600068204C00F0B3
:10105000080011902A46F0212046FFF720FB0F20C0
:10106000CDE90C050CA920460E95FFF71BFAF020E0
:101070000C900126CDE90D650CA920460F95FFF7D0
:1010800011FA00940421019403940594022004941D
:101090000694ADF820600822ADF828600294ADF8FF
:1010A0002200ADF82410ADF82A00ADF82C100794FA
:1010B000ADF82620ADF82E206846FFF797FE0548CC
:1010C000FFF7D4FE6420FFF7DBF9F8E73038024081
:1010D000000C0240540000204FF04070E1EE100A76
:1010E0007047000000000000000001020304060732
:1010F00008090000230000002A0000003000000062
:101100003100000032000000330000003400000015
:1011100035000000360000003700000038000000F5
:1011200039000000410000004200000043000000C0
:10113000440000005411000800000020540000008A
:10114000C4010008A811000854000020A4060000F3
:10115000E001000800000000001100080411000870
:1011600008110008241100080C11000810110008D3
:101170001411000828110008181100081C1100089B
:10118000201100082C110008F8100008FC100008BD
:10119000F4100008301100080100000010000000E9
:0811A000000000000024F4002F
:040000050800018965
:00000001FF
